:100000000C9446000C9465000C9465000C946500FB
:100010000C9465000C9465000C9465000C946500CC
:100020000C9465000C9465000C9465000C946500BC
:100030000C9465000C94DE000C9465000C94650033
:100040000C9465000C9465000C9465000C9465009C
:100050000C9465000C9465000C9465000C9465008C
:100060000C9465000C9465000C9465000C9465007C
:100070000C9465000C9465000C9465000C9465006C
:100080000C9465000C9465000C94650011241FBE4F
:10009000CFEFD0E4DEBFCDBF11E0A0E0B1E0E2E2FF
:1000A000F7E000E00BBF02C007900D92A231B1074C
:1000B000D9F721E0A2E1B1E001C01D92AD32B20753
:1000C000E1F70E9439030C948F030C940000CF9346
:1000D000DF9300D01F92CDB7DEB789837B836A831D
:1000E00089818A3031F48A819B81BC018DE00E9434
:1000F000670080EC90E0FC018081882F90E08072A6
:100100009927892BB1F386EC90E02981FC012083AB
:1001100080E090E00F900F900F90DF91CF910895C5
:10012000CF93DF93CDB7DEB781E890E02BE0FC0101
:10013000208388E890E02DE730E0FC0131832083C4
:100140008FE690E022E0FC01208384E890E0FC014F
:100150001182108280910E0190910F01A0911001E7
:10016000B09111018093130190931401A093150194
:10017000B09316018FE590E02FE530E0F901208182
:100180002068FC0120830000DF91CF910895CF9378
:10019000DF93CDB7DEB781E890E0FC01108200006C
:1001A000DF91CF910895CF93DF93CDB7DEB781E094
:1001B000809312010000DF91CF9108951F920F925A
:1001C00000905F000F92112400905B000F922F931C
:1001D0003F934F935F936F937F938F939F93AF93CF
:1001E000BF93EF93FF93CF93DF93CDB7DEB78091AB
:1001F000130190911401A0911501B091160101977E
:10020000A109B1098093130190931401A0931501E2
:10021000B09316018091130190911401A0911501E2
:10022000B0911601892B8A2B8B2B91F40E94D3005D
:1002300080910E0190910F01A0911001B0911101D8
:100240008093130190931401A0931501B0931601AC
:100250000000DF91CF91FF91EF91BF91AF919F91FE
:100260008F917F916F915F914F913F912F910F905F
:1002700000925B000F9000925F000F901F90189506
:10028000CF93DF9300D000D0CDB7DEB769837A83F8
:100290008B839C8389819A81AB81BC8180930E0181
:1002A00090930F01A0931001B093110180910E0162
:1002B00090910F01A0911001B09111018093130151
:1002C00090931401A0931501B093160100000F90B4
:1002D0000F900F900F90DF91CF910895CF93DF9300
:1002E000CDB7DEB780911F0190912001813091053B
:1002F00091F08130910530F08230910599F00397AB
:10030000C1F01EC081E090E09093200180931F0116
:100310001092230115C082E090E090932001809319
:100320001F010EC083E090E09093200180931F0195
:1003300007C081E090E09093200180931F010000AE
:1003400080911F01909120018130910549F0813009
:10035000910590F08230910539F0039749F00DC076
:1003600081E08093230109C082E08093230105C0CE
:1003700084E08093230101C000000000DF91CF9151
:100380000895CF93DF93CDB7DEB780912B01909185
:100390002C0181309105B1F08130910518F0029760
:1003A00051F017C082E090E090932C0180932B01D4
:1003B00010922A010EC081E090E090932C0180936E
:1003C0002B0107C082E090E090932C0180932B01D9
:1003D000000080912B0190912C018130910549F012
:1003E0008130910550F0029709F008C010922A015F
:1003F00005C081E080932A0101C000000000DF9168
:10040000CF910895CF93DF93CDB7DEB780912101CF
:10041000909122018130910599F08130910518F079
:100420000297F9F055C082E090E09093220180930A
:10043000210182E08093260182E08093270148C059
:1004400080E290E0FC018081882F90E08370992702
:10045000892BD9F582E090E09093220180932101CD
:1004600034C080E290E0FC018081882F90E08370AE
:100470009927029781F481E090E090932201809384
:10048000210180912601883010F5809126018F5F2F
:10049000809326011CC080E290E0FC018081882FBF
:1004A00090E083709927019791F481E090E0909318
:1004B00022018093210180912601823040F08091B9
:1004C000260181508093260102C0000001C0000077
:1004D0000000DF91CF910895CF93DF93CDB7DEB7C2
:1004E00080912801909129018130910599F0813006
:1004F000910518F00297F9F040C081E090E09093E8
:100500002901809328011092250180912501809373
:10051000240133C09091240180912601981750F155
:1005200082E090E0909329018093280110922501A8
:10053000109224011FC090912401809127019817E7
:10054000D8F081E090E0909329018093280180E227
:1005500090E0FC018081882F90E084709927892B9E
:1005600021F081E08093250102C0109225011092B4
:10057000240102C0000001C0000080912801909178
:1005800029018130910531F08130910508F1029700
:10059000B9F01FC080E290E0FC018081882F90E0DC
:1005A00084709927892B21F081E08093250102C076
:1005B00010922501809124018F5F8093240109C04E
:1005C000809124018F5F809324011092250101C046
:1005D00000000000DF91CF910895CF93DF93CDB756
:1005E000DEB780911B0190911C01A0911D01B0917B
:1005F0001E018C329140A105B10550F00E946E01A0
:1006000010921B0110921C0110921D0110921E01EC
:100610008091170190911801A0911901B0911A01D0
:10062000883E9340A105B10550F00E94C10110928F
:100630001701109218011092190110921A010E94CC
:1006400002020E946C0285E290E020912501322F87
:100650003295307F20912A01220F220F220F320F74
:1006600020912301230FFC0120830000DF91CF9113
:100670000895CF93DF93CDB7DEB781E290E0FC0120
:10068000108282E290E02FEFFC01208384E290E070
:100690002FE1FC01208385E290E0FC0110821092A2
:1006A000200110921F0110922C0110922B0161E089
:1006B00070E080E090E00E9440010E9490000E9463
:1006C000ED020000809112018823E1F310921201E3
:1006D00080911B0190911C01A0911D01B0911E0100
:1006E0000196A11DB11D80931B0190931C01A09345
:1006F0001D01B0931E018091170190911801A091E6
:100700001901B0911A010196A11DB11D8093170125
:1007100090931801A0931901B0931A01D0CFF894C7
:02072000FFCF09
:10072200000000020000000067000000000001005D
:020732000000C5
:00000001FF
