:100000000C9446000C9465000C9465000C946500FB
:100010000C9465000C9465000C9465000C946500CC
:100020000C9465000C9465000C9465000C946500BC
:100030000C9465000C94DE000C9465000C94650033
:100040000C9465000C9465000C9465000C9465009C
:100050000C9465000C9465000C9465000C9465008C
:100060000C9465000C9465000C9465000C9465007C
:100070000C9465000C9465000C9465000C9465006C
:100080000C9465000C9465000C94650011241FBE4F
:10009000CFEFD0E4DEBFCDBF11E0A0E0B1E0E0E201
:1000A000F5E000E00BBF02C007900D92A231B1074E
:1000B000D9F721E0A2E1B1E001C01D92A532B2075B
:1000C000E1F70E9441020C948E020C940000CF9341
:1000D000DF9300D01F92CDB7DEB789837B836A831D
:1000E00089818A3031F48A819B81BC018DE00E9434
:1000F000670080EC90E0FC018081882F90E08072A6
:100100009927892BB1F386EC90E02981FC012083AB
:1001100080E090E00F900F900F90DF91CF910895C5
:10012000CF93DF93CDB7DEB781E890E02BE0FC0101
:10013000208388E890E02DE730E0FC0131832083C4
:100140008FE690E022E0FC01208384E890E0FC014F
:100150001182108280910E0190910F01A0911001E7
:10016000B09111018093130190931401A093150194
:10017000B09316018FE590E02FE530E0F901208182
:100180002068FC0120830000DF91CF910895CF9378
:10019000DF93CDB7DEB781E890E0FC01108200006C
:1001A000DF91CF910895CF93DF93CDB7DEB781E094
:1001B000809312010000DF91CF9108951F920F925A
:1001C00000905F000F92112400905B000F922F931C
:1001D0003F934F935F936F937F938F939F93AF93CF
:1001E000BF93EF93FF93CF93DF93CDB7DEB78091AB
:1001F000130190911401A0911501B091160101977E
:10020000A109B1098093130190931401A0931501E2
:10021000B09316018091130190911401A0911501E2
:10022000B0911601892B8A2B8B2B91F40E94D3005D
:1002300080910E0190910F01A0911001B0911101D8
:100240008093130190931401A0931501B0931601AC
:100250000000DF91CF91FF91EF91BF91AF919F91FE
:100260008F917F916F915F914F913F912F910F905F
:1002700000925B000F9000925F000F901F90189506
:10028000CF93DF9300D000D0CDB7DEB769837A83F8
:100290008B839C8389819A81AB81BC8180930E0181
:1002A00090930F01A0931001B093110180910E0162
:1002B00090910F01A0911001B09111018093130151
:1002C00090931401A0931501B093160100000F90B4
:1002D0000F900F900F90DF91CF910895CF93DF9300
:1002E000CDB7DEB780911F0190912001813091053B
:1002F00091F08130910530F08230910599F00397AB
:10030000C1F01EC081E090E09093200180931F0116
:100310001092210115C082E090E09093200180931B
:100320001F010EC083E090E09093200180931F0195
:1003300007C081E090E09093200180931F010000AE
:1003400080911F01909120018130910549F0813009
:10035000910590F08230910539F0039749F00DC076
:1003600081E08093210109C082E08093210105C0D2
:1003700084E08093210101C000000000DF91CF9153
:100380000895CF93DF93CDB7DEB78091230190918D
:10039000240181309105B1F08130910518F0029768
:1003A00051F017C082E090E09093240180932301E4
:1003B000109222010EC081E090E09093240180937E
:1003C000230107C082E090E09093240180932301F1
:1003D000000080912301909124018130910549F022
:1003E0008130910550F0029709F008C01092220167
:1003F00005C088E08093220101C000000000DF9169
:10040000CF910895CF93DF93CDB7DEB780911B01D5
:1004100090911C01A0911D01B0911E01883E934056
:10042000A105B10550F00E946E0110921B011092BF
:100430001C0110921D0110921E01809117019091D4
:100440001801A0911901B0911A01883E9340A105AD
:10045000B10550F00E94C1011092170110921801CD
:100460001092190110921A0185E290E03091220158
:1004700020912101230FFC0120830000DF91CF9107
:100480000895CF93DF93CDB7DEB784E290E02FE0FD
:10049000FC01208385E290E0FC0110821092200193
:1004A00010921F01109224011092230161E070E06C
:1004B00080E090E00E9440010E9490000E940202B1
:1004C0000000809112018823E1F3109212018091C3
:1004D0001B0190911C01A0911D01B0911E0101967C
:1004E000A11DB11D80931B0190931C01A0931D01C0
:1004F000B0931E018091170190911801A0911901EC
:10050000B0911A010196A11DB11D8093170190931E
:100510001801A0931901B0931A01D0CFF894FFCF1E
:100520000000000200000000670000000000010061
:020530000000C9
:00000001FF
