:100000000C9446000C9465000C9465000C946500FB
:100010000C9465000C9465000C9465000C946500CC
:100020000C9465000C9465000C9465000C946500BC
:100030000C9465000C94DE000C9465000C94650033
:100040000C9465000C9465000C9465000C9465009C
:100050000C9465000C9465000C9465000C9465008C
:100060000C9465000C9465000C9465000C9465007C
:100070000C9465000C9465000C9465000C9465006C
:100080000C9465000C9465000C94650011241FBE4F
:10009000CFEFD0E4DEBFCDBF11E0A0E0B1E0EAE4F5
:1000A000F6E000E00BBF02C007900D92A431B1074B
:1000B000D9F721E0A4E1B1E001C01D92AB32B20753
:1000C000E1F70E94CD020C9423030C940000CF931F
:1000D000DF9300D01F92CDB7DEB789837B836A831D
:1000E00089818A3031F48A819B81BC018DE00E9434
:1000F000670080EC90E0FC018081882F90E08072A6
:100100009927892BB1F386EC90E02981FC012083AB
:1001100080E090E00F900F900F90DF91CF910895C5
:10012000CF93DF93CDB7DEB781E890E02BE0FC0101
:10013000208388E890E02DE730E0FC0131832083C4
:100140008FE690E022E0FC01208384E890E0FC014F
:100150001182108280910E0190910F01A0911001E7
:10016000B09111018093150190931601A09317018E
:10017000B09318018FE590E02FE530E0F901208180
:100180002068FC0120830000DF91CF910895CF9378
:10019000DF93CDB7DEB781E890E0FC01108200006C
:1001A000DF91CF910895CF93DF93CDB7DEB781E094
:1001B000809314010000DF91CF9108951F920F9258
:1001C00000905F000F92112400905B000F922F931C
:1001D0003F934F935F936F937F938F939F93AF93CF
:1001E000BF93EF93FF93CF93DF93CDB7DEB78091AB
:1001F000150190911601A0911701B0911801019776
:10020000A109B1098093150190931601A0931701DC
:10021000B09318018091150190911601A0911701DA
:10022000B0911801892B8A2B8B2B91F40E94D3005B
:1002300080910E0190910F01A0911001B0911101D8
:100240008093150190931601A0931701B0931801A4
:100250000000DF91CF91FF91EF91BF91AF919F91FE
:100260008F917F916F915F914F913F912F910F905F
:1002700000925B000F9000925F000F901F90189506
:10028000CF93DF9300D000D0CDB7DEB769837A83F8
:100290008B839C8389819A81AB81BC8180930E0181
:1002A00090930F01A0931001B093110180910E0162
:1002B00090910F01A0911001B0911101809315014F
:1002C00090931601A0931701B093180100000F90AE
:1002D0000F900F900F90DF91CF910895CF93DF9300
:1002E000CDB7DEB780912101909122018130910537
:1002F00091F08130910530F08230910599F00397AB
:10030000C1F01EC081E090E0909322018093210112
:100310001092230115C082E090E090932201809317
:1003200021010EC083E090E090932201809321018F
:1003300007C081E090E090932201809321010000AA
:1003400080912101909122018130910549F0813005
:10035000910590F08230910539F0039749F00DC076
:1003600081E08093230109C082E08093230105C0CE
:1003700084E08093230101C000000000DF91CF9151
:100380000895CF93DF93CDB7DEB780912901909187
:100390002A0181309105B1F08130910518F0029762
:1003A00051F017C082E090E090932A0180932901D8
:1003B000109228010EC081E090E090932A01809372
:1003C000290107C082E090E090932A0180932901DF
:1003D00000008091290190912A018130910549F016
:1003E0008130910550F0029709F008C01092280161
:1003F00005C081E08093280101C000000000DF916A
:10040000CF910895CF93DF93CDB7DEB780912601CA
:10041000909127018130910599F08130910518F074
:100420000297F9F040C081E090E09093270180931B
:10043000260110922501809125018093240133C06B
:100440009091240180911201981750F182E090E080
:100450009093270180932601109225011092240188
:100460001FC090912401809113019817D8F081E06A
:1004700090E0909327018093260180E290E0FC01B8
:100480008081882F90E084709927892B21F081E06A
:100490008093250102C0109225011092240102C010
:1004A000000001C000008091260190912701813059
:1004B000910531F08130910508F10297B9F01FC024
:1004C00080E290E0FC018081882F90E08470992781
:1004D000892B21F081E08093250102C01092250133
:1004E000809124018F5F8093240109C080912401B1
:1004F0008F5F809324011092250101C0000000004D
:10050000DF91CF910895CF93DF93CDB7DEB7809180
:100510001D0190911E01A0911F01B09120018C320C
:100520009140A105B10550F00E946E0110921D018D
:1005300010921E0110921F0110922001809119014A
:1005400090911A01A0911B01B0911C01883E93402B
:10055000A105B10550F00E94C1011092190110923D
:100560001A0110921B0110921C010E94020285E2E6
:1005700090E020912501322F3295307F2091280183
:10058000220F220F220F320F20912301230FFC0193
:1005900020830000DF91CF910895CF93DF93CDB7F3
:1005A000DEB781E290E0FC01108282E290E02FEF62
:1005B000FC01208384E290E02FE1FC01208385E2AE
:1005C00090E0FC0110821092220110922101109201
:1005D0002A011092290161E070E080E090E00E9421
:1005E00040010E9490000E9483020000809114014B
:1005F0008823E1F31092140180911D0190911E0156
:10060000A0911F01B09120010196A11DB11D809301
:100610001D0190931E01A0931F01B09320018091B2
:10062000190190911A01A0911B01B0911C01019632
:10063000A11DB11D8093190190931A01A0931B0174
:0A064000B0931C01D0CFF894FFCF57
:10064A000000000200000000670000000000010036
:04065A000000020298
:00000001FF
